:1070000055C000006EC000006CC000006AC00000E7
:1070100068C0000066C0000064C0000062C00000DC
:1070200060C000005EC00000D1C400005AC0000073
:1070300058C0000056C0000054C0000052C00000FC
:1070400050C00000DBC000004CC000004AC000007F
:1070500048C0000046C0000044C0000042C000001C
:1070600040C000003EC000003CC000003AC000002C
:1070700038C0000036C0000034C0000032C000003C
:1070800030C000002EC000002CC000002AC000004C
:1070900028C0000026C0000024C0000022C000005C
:1070A00020C000001EC000001CC0000011241FBE34
:1070B000CFEFDAE0DEBFCDBF11E0A0E0B1E0EEEE51
:1070C000FEE702C005900D92A43DB107D9F711E08B
:1070D000A4EDB1E001C01D92AA3EB107E1F759D37A
:1070E00004C78ECF84E08093E9000DC08091E80052
:1070F0008B778093E80003C08EB3882359F080918A
:10710000E80082FFF9CF8091E80085FFEFCF809102
:10711000F100089580E0089593E09093E900909144
:10712000E80095FF09C08093F10084E690E0909319
:10713000D9018093D80108959091E8009E779093AB
:10714000E80003C09EB3992329F09091E80090FFD6
:10715000F9CFE9CF0895F894109211081092100811
:1071600010926F001092810010928500109284009E
:1071700081E085BF15BE47980C940000089580916A
:10718000DE019091DF0101969093DF018093DE0193
:10719000292F97FF03C03EEF391B232F220F2817FB
:1071A00010F447980895479A089584B7877F84BF5D
:1071B00088E10FB6F89480936000109260000FBED3
:1071C00090E880E00FB6F89490936100809361009E
:1071D0000FBE81E085BF82E085BF3F9AE1E6F0E027
:1071E000908310824798109289009DE790938800C1
:1071F00080936F0083E080938100D0C31F920F9231
:107200000FB60F9211242F938F939F93EF93FF93B9
:1072100010928500109284008091D8019091D9013C
:10722000009729F001979093D9018093D80180911C
:10723000D6019091D701009729F001979093D7013B
:107240008093D601E0E0F0E085919491019649F0B9
:107250008091D4019091D50101969093D5018093AE
:10726000D401FF91EF919F918F912F910F900FBEBD
:107270000F901F90189542E061EC82E022D342E12A
:1072800061E883E01ED342E160E884E01AC38091A4
:10729000E201982F9F77913239F59091E301903276
:1072A00091F0913209F5813AF9F48091E800877FF5
:1072B0008093E80067E070E083E091E035D480914E
:1072C000E8008B770FC0813279F48091E800877FE6
:1072D0008093E80067E070E083E091E082D48091E1
:1072E000E8008E778093E80008954F925F926F9246
:1072F0007F928F929F92AF92BF92CF92DF92EF9246
:10730000FF920F931F93CF93DF9384E08093E90064
:107310008091E80082FF2CC284E690E09093D70130
:107320008093D601DFDE082F853481F48CE195E26D
:107330009093D5018093D40107B600FCFDCFF99955
:10734000FECF81E180935700E89503C0843521F496
:10735000C9DE8DE0E1DEE3C18C34D9F3803509F478
:10736000F8CF843721F484E4D7DE80E0F3CF813690
:1073700011F489E5EFCF813481F4B4DEC82FB2DE99
:1073800090E0880F991F3C2F330F20E0822B932B26
:10739000AA2797FDA095BA2F96C1803711F483E5EF
:1073A000D9CF833549F4CAECD1E08991B5DE21E02B
:1073B000C13DD207D1F7B3C1863521F481E3ACDEFC
:1073C00080E3C8CF833731F487E8A6DE85E9A4DE01
:1073D0008EE1C0CF8536B9F4E0E0F0E083E095E0DF
:1073E00080935700E89507B600FCFDCF90935700B7
:1073F000E89507B600FCFDCFE058FF4FE11520E708
:10740000F20771F7A6CF823719F4E1E0F0E00EC081
:10741000863419F4E0E0F0E009C08E3419F4E3E0BA
:10742000F0E004C0813539F4E2E0F0E089E08093D7
:10743000570084918FCF823631F489E56DDE80E08C
:107440006BDE80E887CF823419F0873609F0D1C02F
:107450001092D5011092D40145DEC82E43DED82EFD
:1074600041DE182F8554823010F08FE373CFDC2D6E
:1074700080E0C82FCD2910926F00073609F041C077
:1074800081E180935700E895B12C01E037C0C090AE
:10749000DA01D090DB01E090DC01F090DD011634E0
:1074A000B9F4EB2DF0E0EC29FD29849135DEBB2009
:1074B00069F0E2E0CE0ED11CE11CF11CC092DA01B1
:1074C000D092DB01E092DC01F092DD01B02615C024
:1074D000D701C601B695A79597958795F0D41CDE80
:1074E000F2E0CF0ED11CE11CF11CC092DA01D09267
:1074F000DB01E092DC01F092DD012197209739F663
:1075000074C08090DA019090DB01A090DC01B09013
:10751000DD01163409F057C083E0F4018093570071
:10752000E89507B600FCFDCF4EC0163439F5DD20D6
:1075300009F14090DA015090DB016090DC0170901D
:10754000DD01D0DDF82EE12C97012C29F201090193
:1075500000935700E8951124F2E04F0E511C611C76
:10756000711C4092DA015092DB016092DC01709252
:10757000DD0102C0B7DDC82ED02623C0B3DD682FE1
:107580008091DA019091DB01A091DC01B091DD01E5
:10759000B695A795979587959AD44091DA01509121
:1075A000DB016091DC017091DD014E5F5F4F6F4F39
:1075B0007F4F4093DA015093DB016093DC017093BD
:1075C000DD01219703C0C12CD12C01E0209709F0E7
:1075D000ACCF163441F485E0F40180935700E89570
:1075E00007B600FCFDCF8DE097DD82E080936F0051
:1075F00096C0833471F4C091DA01D091DB0172DD61
:1076000090E021E0FE010C0120935700E895112441
:10761000A0CE833611F5C090DA01D090DB01E09066
:10762000DC01F090DD015EDDB701A601416090E074
:1076300021E0FA010C0120935700E8951124F2E0B3
:10764000CF0ED11CE11CF11CC092DA01D092DB01FB
:10765000E092DC01F092DD017CCE8D3661F4E091A8
:10766000DA01F091DB0185E080935700E89507B6D9
:1076700000FCFDCF6ECE823551F4E091DA01F0913D
:10768000DB01C591D4918D2F47DD8C2F63CE8434DF
:1076900019F528DD682F8091DA019091DB01A09126
:1076A000DC01B091DD01B695A795979587950FD42C
:1076B0008091DA019091DB01A091DC01B091DD01B4
:1076C0000296A11DB11D8093DA019093DB01A09376
:1076D000DC01B093DD013DCE8436F1F4C090DA01D7
:1076E000D090DB01E090DC01F090DD01D701C60114
:1076F000B695A79597958795E2D30EDD22E0C20E49
:10770000D11CE11CF11CC092DA01D092DB01E092A5
:10771000DC01F092DD0103C08B3109F0A6CE83E0DD
:107720008093E9009091E8008091E8008E77809343
:10773000E80095FD11C08091E80080FD04C08EB383
:107740008111F9CF15C08091E8008E778093E80011
:1077500003C08EB3882361F08091E80080FFF9CFE9
:1077600084E08093E9008091E8008B778093E800C3
:10777000DF91CF911F910F91FF90EF90DF90CF900D
:10778000BF90AF909F908F907F906F905F904F9041
:1077900008958091000890910108109201081092BC
:1077A000000844B714BE28E10FB6F8942093600097
:1077B000109260000FBEE0E0F0E0259134912F3F81
:1077C0003F4F51F140FD1DC041FF1DC08091100889
:1077D000909111088F3A9D4A29F410921108109245
:1077E00010081AC08FEA9DEA909311088093100840
:1077F0005FE78FE492E1515080409040E1F700C094
:107800000000A9DC09C0483039F420910001309112
:10781000010182179307A9F7C8DC78941092D5016B
:107820001092D4010CC061DD39D38091D4019091C4
:10783000D5018131974210F010920201A0DC8091B5
:1078400002018111F0CF8091E00081608093E0001F
:1078500082DC80E090E00895292F30E03327223049
:10786000310539F02330310549F02130310589F0F7
:107870000BC02EE330E08AE791E01EC0882371F050
:10788000813089F08230A1F020E030E080E090E0AB
:1078900013C022E130E088EB91E00EC024E030E03C
:1078A00086E791E009C022E230E08CE391E004C079
:1078B00028E130E08AE091E0FA0191838083C901F8
:1078C00008958093E900EBEEF0E080818160808391
:1078D000EDEEF0E010826093EC0040838091EE00CA
:1078E000881F8827881F08958091E20187FD05C0C1
:1078F0008091E80080FF0DC010C08091E80082FDFB
:1079000004C08EB38111F9CF08958091E8008B7780
:1079100007C08EB38111ECCF08958091E8008E7777
:107920008093E80008950F931F93CF93DF9341D086
:1079300048D0C8EDD0E088818F77888388818068BF
:10794000888388818F7D888319BC1EBA1092E001DC
:1079500000EE10E0F80180818B7F80838881816058
:10796000888342E060E080E0ACDFE1EEF0E080811F
:107970008E7F8083E2EEF0E0808181608083808171
:1079800088608083F80180818E7F80838881806118
:107990008883DF91CF911F910F910895E7EDF0E07B
:1079A0008081816080838AE482BF81E08093E101ED
:1079B000BACFE8EDF0E080818E7F80831092E20004
:1079C00008951092DA001092E10008951F920F922C
:1079D0000FB60F9211242F933F934F935F936F93A2
:1079E0007F938F939F93AF93BF93EF93FF93809178
:1079F000DA0080FF19C08091D80080FF15C0809107
:107A0000DA008E7F8093DA008091D90019BC80FF64
:107A100009C082E089BD09B400FEFDCF81E08EBBC4
:107A20003CD202C01EBA39D28091E10080FF17C05B
:107A30008091E20080FF13C08091E2008E7F8093EE
:107A4000E2008091E20080618093E2008091D800A2
:107A500080628093D80019BC85E08EBB1ED28091D5
:107A6000E10084FF2BC08091E20084FF27C019BC95
:107A700082E089BD09B400FEFDCF8091D8008F7DE2
:107A80008093D8008091E1008F7E8093E100809107
:107A9000E2008F7E8093E2008091E200816080931B
:107AA000E2008091E001811104C08091E30087FF32
:107AB00002C084E001C081E08EBBEFD18091E10083
:107AC00083FF21C08091E20083FF1DC08091E1000F
:107AD000877F8093E10082E08EBB1092E00180916D
:107AE000E1008E7F8093E1008091E2008E7F8093A1
:107AF000E2008091E20080618093E20042E060E079
:107B000080E0DFDECAD1FF91EF91BF91AF919F91ED
:107B10008F917F916F915F914F913F912F910F9036
:107B20000FBE0F901F9018954091E8015091E90108
:107B30004617570748F06115710539F44091E80080
:107B40004E774093E80001C0BA01FC0140E032C02A
:107B50008EB3882309F441C0853009F440C0809178
:107B6000E80083FD38C08091E80082FD2EC080913E
:107B7000E80080FF1FC09091F3008091F200392F40
:107B800020E0A901482BCA0106C041914093F100B1
:107B90006150710901966115710519F088309105E0
:107BA000A0F341E0089709F040E08091E8008E776B
:107BB0008093E8006115710559F64111C9CF05C0E0
:107BC0008EB3882351F0853051F08091E80082FF18
:107BD000F7CF80E0089581E0089582E0089583E082
:107BE00008956115710529F44091E8004B774093A1
:107BF000E800AC0127C08EB38823B1F1853071F164
:107C00008091E80083FD2CC08091E80082FFF3CFD3
:107C1000FA0107C08091F1008193AF0161507109B1
:107C200061F0AF019091F3008091F200392F20E0D4
:107C3000D901A82BCD01892B69F78091E8008B77BA
:107C40008093E80061157105B1F68091E80080FD30
:107C500009C08EB3882341F08530B9F783E00895D9
:107C600081E0089580E0089582E00895EF92FF9208
:107C70000F931F93CF93DF9300D0CDB7DEB7E2EE23
:107C8000F1E08091F100819381E0EA3EF807C9F7C5
:107C9000FEDA8091E80083FFE9C08091E2019091D3
:107CA000E301953009F46FC038F4913071F170F050
:107CB000933009F0DBC029C0983009F4AAC099308C
:107CC00009F4B9C0963009F0D1C083C0803809F4F6
:107CD000CDC0823809F0CAC08091E6019091E701D9
:107CE000877099278093E9009091EB001092E9004A
:107CF0008091E800877F8093E80095FB882780F9D2
:107D00008093F1001092F1008FC0882319F0823027
:107D100009F0ACC08F71823009F0A8C08091E401F5
:107D200081112BC08091E6019091E701877099271E
:107D3000009709F49BC08093E9002091EB0020FF9D
:107D40001CC02091E301233021F48091EB0080627C
:107D500012C09091EB0090619093EB0021E030E035
:107D600001C0220F8A95EAF72093EA001092EA00F8
:107D70008091EB0088608093EB001092E900809185
:107D8000E800877F54C0811171C00091E401109117
:107D9000E5010F771127E02EFFB6F8948091E800F7
:107DA000877F8093E800A0DD8091E80080FFFCCF12
:107DB0008091E3008078802B8093E300806880933B
:107DC000E300EE2011F083E001C082E08EBBFFBE35
:107DD0004DC08058823008F049C0AE014F5F5F4F00
:107DE0006091E6018091E4019091E50135DD009715
:107DF00009F43CC02091E800277F2093E800BC01F3
:107E000089819A8191DE8091E8008B778093E800E8
:107E10002DC0803859F58091E800877F8093E80075
:107E20008091E0018093F1008091E8008E7780934B
:107E3000E8005ADD1BC0811119C09091E401923015
:107E4000A8F48091E800877F8093E8009093E00198
:107E50004BDD8091E001811104C08091E30087FF38
:107E600002C084E001C081E08EBB05DA8091E800A9
:107E700083FF0AC08091EB0080628093EB008091C9
:107E8000E800877F8093E8000F900F90DF91CF91FB
:107E90001F910F91FF90EF9008950895CF938EB3A7
:107EA000882359F0C091E900C7701092E9008091D1
:107EB000E80083FDDBDEC093E900CF910895F999D6
:107EC000FECF92BD81BDF89A992780B50895262FDF
:107ED000F999FECF1FBA92BD81BD20BD0FB6F894AF
:0E7EE000FA9AF99A0FBE01960895F894FFCF12
:107EEE0077770100000000000008180341006400CD
:107EFE006100660072007500690074002000490080
:107F0E006E006400750073007400720069006500F5
:107F1E00730020004C004C0043000000220341007F
:107F2E006400610066007200750069007400200034
:107F3E004300690072006300750069007400200040
:107F4E0050006C0061007900670072006F007500D0
:107F5E006E00640000000403090409023E000201E1
:107F6E000080320904000001020201000524001005
:107F7E0001042402040524060001070582030800FB
:107F8E00FF09040100020A000000070504021000A8
:107F9E000107058302100001120110010200000802
:107FAE009A23110001000201000143415445524938
:047FBE004E41000030
:040000030000700089
:00000001FF
